{
  "txid": "635b7521cf0f5982e8f4fcd1abbb8799d603a72d6aca08736532db691a6c7d7a",
  "hash": "a36c52dada719863fff08fae861de658a7880cddbf35c7d9f943e86ed91a8ec5",
  "version": 2,
  "size": 167,
  "vsize": 140,
  "weight": 560,
  "locktime": 0,
  "vin": [
    {
      "coinbase": "5100",
      "txinwitness": [
        "0000000000000000000000000000000000000000000000000000000000000000"
      ],
      "sequence": 4294967295
    }
  ],
  "vout": [
    {
      "value": 50.00000000,
      "n": 0,
      "scriptPubKey": {
        "asm": "0 02f91bfd279a8580df9dd724597e9a6919e1bcd6",
        "desc": "addr(bcrt1qqtu3hlf8n2zcphua6uj9jl56dyv7r0xkv6s0ts)#mjnsadsp",
        "hex": "001402f91bfd279a8580df9dd724597e9a6919e1bcd6",
        "address": "bcrt1qqtu3hlf8n2zcphua6uj9jl56dyv7r0xkv6s0ts",
        "type": "witness_v0_keyhash"
      }
    },
    {
      "value": 0.00000000,
      "n": 1,
      "scriptPubKey": {
        "asm": "OP_RETURN aa21a9ede2f61c3f71d1defd3fa999dfa36953755c690689799962b48bebd836974e8cf9",
        "desc": "raw(6a24aa21a9ede2f61c3f71d1defd3fa999dfa36953755c690689799962b48bebd836974e8cf9)#cav96mf3",
        "hex": "6a24aa21a9ede2f61c3f71d1defd3fa999dfa36953755c690689799962b48bebd836974e8cf9",
        "type": "nulldata"
      }
    }
  ],
  "hex": "020000000001010000000000000000000000000000000000000000000000000000000000000000ffffffff025100ffffffff0200f2052a0100000016001402f91bfd279a8580df9dd724597e9a6919e1bcd60000000000000000266a24aa21a9ede2f61c3f71d1defd3fa999dfa36953755c690689799962b48bebd836974e8cf90120000000000000000000000000000000000000000000000000000000000000000000000000",
  "blockhash": "5d2385e4d395406d74551d4b7faac874cefbada38cdc533da7dad86064905fe3",
  "confirmations": 101,
  "time": 1772553851,
  "blocktime": 1772553851
}